:020000040000FA
:100000000C945E000C9486000C9486000C94860080
:100010000C9486000C9486000C9486000C94860048
:100020000C9486000C9486000C9486000C94860038
:100030000C9486000C9486000C9486000C94860028
:100040000C94DB020C9486000C944B030C94250357
:100050000C9486000C9486000C9486000C94860008
:100060000C9486000C9486000000000024002700F9
:100070002A0000000008000201000003040700003D
:10008000000000000000010204081020408001026E
:1000900004081020010204081020000000002500C0
:1000A00028002B00040404040404040402020202D5
:1000B00002020303030303037D03E60611241FBEAC
:1000C000CFEFD8E0DEBFCDBF21E0AEE2B1E001C0AE
:1000D0001D92AA3FB207E1F711E0A0E0B1E0E0E82D
:1000E000F3E102C005900D92AE32B107D9F710E0EE
:1000F000CDE5D0E004C02197FE010E94BB07CC35BE
:10010000D107C9F70E945C040C94B3090C94000059
:100110004F925F926F927F928F929F92AF92BF9217
:10012000FF922091E2013091E3018217930708F0DA
:1001300043C02B0166247724852E962EA72EBB2440
:10014000B82DA42F2091E801F42C222391F0E22F66
:10015000F0E0E49DD001E59DB00DF49DB00D1124BB
:10016000FB2E289D40011124B92D249F90011124BC
:10017000A32FE091EE012091E9013091EA01509125
:10018000EB01E51323C0FC01EE0FFF1F8E0F9F1F35
:10019000820F931FE091EB01E80FF92FF11DF08220
:1001A000E091EC01E80FF92FF11DB0832091ED01F2
:1001B000820F911DFC01A083FF90BF90AF909F9094
:1001C0008F907F906F905F904F900895880F991F48
:1001D000880F991F820F931FE80FF92FF11D1082CE
:1001E000D9CF90E0FC01EE58FF4F2491FC01EA5773
:1001F000FF4F3491FC01EC55FF4FE491EE23C9F021
:10020000222339F0233001F1A8F4213019F12230F2
:1002100029F1F0E0EE0FFF1FE656FF4FA591B491D4
:100220008FB7F894EC91611126C030953E233C9332
:100230008FBF08952730A9F02830C9F0243049F73E
:10024000809180008F7D03C0809180008F778093A4
:100250008000DFCF84B58F7784BDDBCF84B58F7D01
:10026000FBCF8091B0008F778093B000D2CF809188
:10027000B0008F7DF9CF3E2BDACFCF93DF9390E0A4
:10028000FC01EA57FF4F24918C559F4FFC0184914C
:100290008823D1F090E0880F991FFC01E859FF4FA7
:1002A000A591B491FC01E656FF4FC591D49161111F
:1002B0000EC09FB7F8948C91E22FE0958E238C931B
:1002C0002881E223E8839FBFDF91CF9108958FB704
:1002D000F894EC91E22BEC938FBFF6CF3FB7F894F4
:1002E0008091390190913A01A0913B01B0913C017C
:1002F00026B5A89B05C02F3F19F00196A11DB11D81
:100300003FBFBA2FA92F982F8827BC01CD01620FBC
:10031000711D811D911D42E0660F771F881F991F77
:100320004A95D1F70895AF92BF92CF92DF92EF92A4
:10033000FF920F931F93CF93DF936C017B018B018F
:10034000040F151FEB015E01AE18BF08C017D107DF
:1003500059F06991D601ED91FC910190F081E02D69
:10036000C6010995892B79F7C501DF91CF911F91BE
:100370000F91FF90EF90DF90CF90BF90AF900895D6
:10038000FC01538D448D252F30E0842F90E0821B9B
:10039000930B541710F0CF96089501970895FC0120
:1003A000918D828D981761F0A28DAE0FBF2FB11D78
:1003B0005D968C91928D9F5F9F73928F90E00895D0
:1003C0008FEF9FEF0895FC01918D828D981731F08A
:1003D000828DE80FF11D858D90E008958FEF9FEFDE
:1003E0000895FC01918D228D892F90E0805C9F4FB4
:1003F000821B91098F73992708958DE391E00E94E4
:10040000F10121E0892B09F420E0822F089580E09A
:1004100090E0892B29F00E94FD0181110C940000CD
:100420000895FC01A48DA80FB92FB11DA35ABF4F89
:100430002C91848D90E001968F739927848FA689E3
:10044000B7892C93A089B1898C91837080648C9337
:10045000938D848D981306C00288F389E02D8081E6
:100460008F7D80830895EF92FF920F931F93CF9318
:10047000DF93EC0181E0888F9B8D8C8D98131AC0DF
:10048000E889F989808185FF15C09FB7F894EE89C6
:10049000FF896083E889F989808183708064808323
:1004A0009FBF81E090E0DF91CF911F910F91FF906E
:1004B000EF900895F62E0B8D10E00F5F1F4F0F7316
:1004C0001127E02E8C8D8E110CC00FB607FCFACFD1
:1004D000E889F989808185FFF5CFCE010E9411025C
:1004E000F1CFEB8DEC0FFD2FF11DE35AFF4FF082A2
:1004F0009FB7F8940B8FEA89FB8980818062CFCF08
:10050000CF93DF93EC01888D8823B9F0AA89BB894A
:10051000E889F9898C9185FD03C0808186FD0DC035
:100520000FB607FCF7CF8C9185FFF2CF808185FF56
:10053000EDCFCE010E941102E9CFDF91CF91089556
:10054000FC0101900020E9F73197AF01481B590BDE
:10055000BC018DE391E00C949301CF93DF93EC0108
:100560008091DA019091DB01009759F02091DC0134
:100570003091DD012C173D0720F081E0DF91CF9114
:100580000895BE016F5F7F4F0E94E608009789F0D3
:100590009093DB018093DA01D093DD01C093DC01FD
:1005A0002091DE013091DF01232B39F7FC0110820D
:1005B000E4CF80E0E3CF1F920F920FB60F92112489
:1005C0002F933F938F939F93AF93BF938091350168
:1005D00090913601A0913701B091380130913401EA
:1005E00023E0230F2D3758F50196A11DB11D20934F
:1005F00034018093350190933601A0933701B09375
:1006000038018091390190913A01A0913B01B0915C
:100610003C010196A11DB11D8093390190933A01CF
:10062000A0933B01B0933C01BF91AF919F918F91FB
:100630003F912F910F900FBE0F901F90189526E8B5
:10064000230F0296A11DB11DD2CF1F920F920FB69C
:100650000F9211242F933F934F935F936F937F9348
:100660008F939F93AF93BF93EF93FF938DE391E0AD
:100670000E941102FF91EF91BF91AF919F918F91D5
:100680007F916F915F914F913F912F910F900FBE8E
:100690000F901F9018951F920F920FB60F92112472
:1006A0002F938F939F93EF93FF93E0914D01F091E0
:1006B0004E018081E0915301F091540182FD1BC0F5
:1006C0009081809156018F5F8F732091570182171F
:1006D00041F0E0915601F0E0E35CFE4F958F80938E
:1006E0005601FF91EF919F918F912F910F900FBE27
:1006F0000F901F9018958081F4CFCF93DF931092C5
:10070000400110923F0188EE93E0A0E0B0E08093BA
:10071000410190934201A0934301B09344018AE0C8
:1007200091E090933E0180933D0185EC90E09093A1
:100730004A018093490184EC90E090934C018093AE
:100740004B0180EC90E090934E0180934D0181EC41
:1007500090E09093500180934F0182EC90E0909351
:1007600052018093510186EC90E090935401809364
:100770005301109256011092570110925801109295
:1007800059011092E1011092E8011092EF011092CC
:10079000F0011092F1011092F20181E08093EE01DC
:1007A0008093EB011092EC0192E09093ED01809325
:1007B000E001C0E1D2E0D093E501C093E40180E123
:1007C00092E00E94C1079093EA018093E9010097AB
:1007D00009F45CC0FC019E01119221503040E1F708
:1007E00080EB90E09093E3018093E20186E090E05B
:1007F0009093E7018093E6018091E101882341F025
:1008000061E086E00E943D0160E086E00E94F10028
:10081000EAEAF0E0E491F0E0EE0FFF1FE656FF4F4A
:10082000859194919093F4018093F301ECE8F0E0CA
:10083000E491E093F5011092DB011092DA0110923D
:10084000DD011092DC011092DF011092DE0181E0E7
:1008500090E00E94AD022091DA013091DB0181111C
:100860001EC02115310519F0C9010E945D081092C2
:10087000DB011092DA011092DF011092DE0110927A
:10088000DD011092DC01DF91CF9108951092E50116
:100890001092E4011092E3011092E201A7CF81E0EF
:1008A00090E09093DF018093DE0168E171E0C9017F
:1008B000DF91CF910C94AC09CF93DF93CDB7DEB726
:1008C000AA970FB6F894DEBF0FBECDBF789484B55B
:1008D000826084BD84B5816084BD85B5826085BD3C
:1008E00085B5816085BD80916E00816080936E00CA
:1008F00010928100809181008260809381008091BC
:10090000810081608093810080918000816080936C
:1009100080008091B10084608093B1008091B0002C
:1009200081608093B00080917A00846080937A0027
:1009300080917A00826080937A0080917A00816051
:1009400080937A0080917A00806880937A00109278
:10095000C1008091E6019091E70197FD93C161E0AC
:100960000E943D0160E08091E6010E94F10081E07B
:100970008093E10161E08CE00E943D01E0914D0136
:10098000F0914E0182E08083E0914901F0914A01AB
:100990001082E0914B01F0914C018FEC808310921A
:1009A0005501E0915101F091520186E08083E09180
:1009B0004F01F0915001808180618083E0914F016F
:1009C000F0915001808188608083E0914F01F09127
:1009D0005001808180688083E0914F01F091500147
:1009E00080818F7D808354E6252E312C6CE9E62EA4
:1009F000FF24FA947AE0872E912CA12CB12C40E0B0
:100A0000C42E40E0D42E8DE391E00E94F10118162F
:100A100019060CF0CFC18DE391E00E94CF018A301E
:100A200009F0A6C18091DA019091DB01009709F4E9
:100A30002CC10E94FE067093330160933201672B34
:100A400009F4FBC08AE191E00E94A00240903201CB
:100A500050903301052C000C6608770877FE19C109
:100A60006DE28DE391E00E94330222273327A90132
:100A7000241935094609570919A28E010F5D1F4F28
:100A8000CA01B901A50194010E948507605DF801C2
:100A900062938F01211531054105510589F7011533
:100AA000110519F0C8010E94A0028AE291E00E949B
:100AB000A0022091320130913301293531050CF427
:100AC000FEC0C901B1010E9471074CE0489F20019E
:100AD000499F500C11245092310140923001C901BC
:100AE000B7010E9471078B01085A1F4F000F111F99
:100AF00010932F0100932E01842D90E0B0E0A0E030
:100B00003C01552444244427582F692F7A2F442A26
:100B1000552A662A772A482A592A6A2A7B2AB30143
:100B2000A201C8010E948800B301A201C801019678
:100B30000E9488008091E9019091EA01892B09F4D3
:100B40007CC00E946E010091EF011091F001209194
:100B5000F1013091F201601771078207930740F4A9
:100B60006093EF017093F0018093F1019093F20193
:100B70000091EF011091F0012091F1013091F2010B
:100B8000601B710B820B930B6C32714081059105D8
:100B9000C0F2F8948091E4019091E5019BA38AA3AF
:100BA000E091E901F091EA01DF01119680818AA7C5
:100BB0009091E001E091F301F091F4018091F50151
:100BC000992309F490C09081982B99A790818095E2
:100BD000892388A788A58DA328E02CA349A558A51B
:100BE0006AA53CA12DA18AA19BA1408367FD242F6A
:100BF0003A952083252F39F0661F00C000005083EE
:100C0000000000C0F2CF38E06D91508300000197E2
:100C100061F7F093F401E093F3016AA73CA32DA3DD
:100C20009BA38AA378940E946E016093EF01709356
:100C3000F0018093F1019093F20181E090E00E9435
:100C4000AD022091DA013091DB01811185C02115BF
:100C5000310519F0C9010E945D081092DB01109264
:100C6000DA011092DF011092DE011092DD01109284
:100C7000DC01109233011092320160E08CE00E949E
:100C8000F100C1CE1092E10175CE60E070E0CB01C1
:100C9000D2CEA301920119A28E010F5D1F4FCA018E
:100CA000B901A50194010E948507605DF801629376
:100CB0008F01211531054105510589F7F0CE08E571
:100CC00010E0021B130B000F111F10932F01009354
:100CD0002E0140E050E0BA01C8010E94880040E0C7
:100CE00050E0BA0123CF9081982B99A790818095ED
:100CF000892388A788A58FA388E08EA349A558A536
:100D00006AA53EA12FA18AA19BA1408367FD242F44
:100D100000C000C0208300C000C000C000C000C0F0
:100D200050830000252F3A9541F0661F000000C057
:100D300000C000C000C000C0E8CF38E06D9100C026
:100D4000508300C0019709F7F093F401E093F30199
:100D50006AA73EA32FA364CF81E090E09093DF01C8
:100D60008093DE0168E171E0C9010E94AC0981CF86
:100D700089831A820091DE011091DF010F5F1F4FFE
:100D8000C8010E94AD02882399F02091DA013091C8
:100D9000DB018091DE019091DF01BE016F5F7F4F2B
:100DA000820F931F0E94AC091093DF010093DE01B4
:100DB00061E064CFC114D10409F425CE0E94FD0185
:100DC000882309F41CCE0E94000019CE8091DA011C
:100DD0009091DB01009711F00E945D088091E9017C
:100DE0009091EA010E945D088091E6019091E701EF
:100DF00097FD03C060E00C943D0108951F93FC0132
:100E000099278827BC01E89411911032E9F3193031
:100E100010F01E30C8F31B3251F01D3249F46894B3
:100E200006C00E942507610F711D811D911D119142
:100E300010531A30B0F33EF49095809570956195FB
:100E40007F4F8F4F9F4F1F910895592F482F372F56
:100E5000262F660F771F881F991F660F771F881F21
:100E6000991F620F731F841F951F660F771F881FBE
:100E7000991F08952F923F924F925F926F927F92A7
:100E80008F929F92AF92BF92CF92DF92EF92FF929A
:100E90000F931F93CF93DF93CDB7DEB7CA1BDB0B46
:100EA0000FB6F894DEBF0FBECDBF09942A883988EB
:100EB00048885F846E847D848C849B84AA84B984F2
:100EC000C884DF80EE80FD800C811B81AA81B981FE
:100ED000CE0FD11D0FB6F894DEBF0FBECDBFED0112
:100EE000089597FB072E16F4009407D077FD09D0DC
:100EF0000E94A70707FC05D03EF4909581959F4F6F
:100F00000895709561957F4F0895A1E21A2EAA1B4E
:100F1000BB1BFD010DC0AA1FBB1FEE1FFF1FA217A9
:100F2000B307E407F50720F0A21BB30BE40BF50BA6
:100F3000661F771F881F991F1A9469F7609570952F
:100F4000809590959B01AC01BD01CF010895AA1B2E
:100F5000BB1B51E107C0AA1FBB1FA617B70710F0A4
:100F6000A61BB70B881F991F5A95A9F780959095D6
:100F7000BC01CD010895EE0FFF1F0590F491E02D07
:100F800009940F931F93CF93DF938230910510F450
:100F900082E090E0E091F801F091F90130E020E08A
:100FA000B0E0A0E0309799F42115310509F44AC06A
:100FB000281B390B24303105D8F58A819B816115B6
:100FC000710589F1FB0193838283FE0111C0408189
:100FD00051810281138148175907E0F048175907DA
:100FE00099F4109761F012960C93129713961C9334
:100FF0003296CF01DF91CF911F910F910895009309
:10100000F8011093F901F4CF2115310551F0421781
:10101000530738F0A901DB019A01BD01DF01F80196
:10102000C1CFEF01F9CF9093F9018093F801CDCFB3
:10103000FE01E20FF31F819391932250310939830E
:101040002883D7CF2091F6013091F701232B41F46B
:1010500020910201309103013093F7012093F601B2
:1010600020910001309101012115310541F42DB786
:101070003EB74091040150910501241B350BE091CE
:10108000F601F091F701E217F307A0F42E1B3F0BD6
:101090002817390778F0AC014E5F5F4F24173507EA
:1010A00048F04E0F5F1F5093F7014093F601819374
:1010B00091939FCFF0E0E0E09CCFCF93DF93009738
:1010C000E9F0FC01329713821282A091F801B091ED
:1010D000F901ED0130E020E01097A1F42081318189
:1010E000820F931F2091F6013091F70128173907DD
:1010F00009F061C0F093F701E093F601DF91CF9121
:101100000895EA01CE17DF07E8F54A815B819E0169
:1011100041155105B1F7E901FB83EA8349915991E2
:10112000C40FD51FEC17FD0761F4808191810296F1
:10113000840F951FE90199838883828193819B8322
:101140008A83F0E0E0E012968D919C9113970097CE
:10115000B9F52D913C911197CD010296820F931F05
:101160002091F6013091F7012817390739F63097A9
:1011700051F51092F9011092F801B093F701A09384
:10118000F601BCCFD383C28340815181840F951F68
:10119000C817D90761F44E5F5F4F88819981480F66
:1011A000591F518340838A819B81938382832115B8
:1011B000310509F0B0CFF093F901E093F8019ECF2B
:1011C000FD01DC01C0CF13821282D7CFB0E0A0E0D6
:1011D000ECEEF8E00C943C078C01009751F4CB0145
:1011E0000E94C1078C01C801CDB7DEB7E0E10C94C5
:1011F0005807FC01E60FF71F9C0122503109E21746
:10120000F30708F49DC0D901CD91DC911197C61761
:10121000D70798F0C530D10530F3CE010497861773
:10122000970708F3C61BD70B2297C193D1936D93F1
:101230007C93CF010E945D08D6CF5B01AC1ABD0A3A
:101240004C018C0E9D1EA091F801B091F901512C1A
:10125000412CF12CE12C109731F58091F601909101
:10126000F7018815990509F05CC04616570608F085
:1012700058C08091000190910101009741F48DB711
:101280009EB74091040150910501841B950BE8170E
:10129000F90708F055C0F093F701E093F601F90162
:1012A00071836083A0CF8D919C91119712966C9061
:1012B000129713967C901397A815B90559F56C01F0
:1012C00042E0C40ED11CCA14DB0420F1AC014A195F
:1012D0005B09DA011296159780F06282738251835E
:1012E0004083D9016D937C93E114F10471F0D7012F
:1012F0001396FC93EE93129776CF22968C0F9D1F38
:10130000F90191838083F301EFCFF093F901E0932A
:10131000F80169CF4816590608F42C017D01D30164
:101320009ACFCB010E94C1077C01009749F0AE0122
:10133000B8010E94A309C8010E945D08870153CF2C
:1013400010E000E050CFFB01DC0102C001900D92E3
:1013500041505040D8F70895FB01DC0101900D92F7
:101360000020E1F7089510E0CDE5D0E004C0FE01D3
:101370000E94BB072196CE35D107C9F7F894FFCF5D
:101380000000FA0180000000000033029301C00158
:101390008002F101CF01E30130004E756D65726985
:0E13A000632076616C75653A20000D0A00002E
:107800000C94343C0C94513C0C94513C0C94513CE1
:107810000C94513C0C94513C0C94513C0C94513CB4
:107820000C94513C0C94513C0C94513C0C94513CA4
:107830000C94513C0C94513C0C94513C0C94513C94
:107840000C94513C0C94513C0C94513C0C94513C84
:107850000C94513C0C94513C0C94513C0C94513C74
:107860000C94513C0C94513C11241FBECFEFD8E036
:10787000DEBFCDBF11E0A0E0B1E0ECE9FFE702C060
:1078800005900D92A230B107D9F712E0A2E0B1E065
:1078900001C01D92AD30B107E1F70E942D3D0C945F
:1078A000CC3F0C94003C982F959595959595959582
:1078B000905D8F708A307CF0282F295A8091C0000B
:1078C00085FFFCCF9093C6008091C00085FFFCCF60
:1078D0002093C6000895282F205DF0CF982F809127
:1078E000C00085FFFCCF9093C6000895EF92FF92F1
:1078F0000F931F93EE24FF2487018091C00087FD22
:1079000017C00894E11CF11C011D111D81E4E8164B
:1079100082E4F8068FE0080780E0180770F3E09132
:107920000401F091050109958091C00087FFE9CF1E
:107930008091C6001F910F91FF90EF9008950E94D3
:10794000763C982F8091C00085FFFCCF9093C600B5
:1079500091362CF490330CF09053892F089597555D
:10796000892F08951F930E949F3C182F0E949F3CCF
:107970001295107F810F1F9108951F93182F882350
:1079800021F00E94763C1150E1F71F9108951F935A
:10799000182F0E94763C803249F0809103018F5F5E
:1079A000809303018530C1F01F9108958091C0003C
:1079B00085FFFCCF84E18093C6008091C00085FFE5
:1079C000FCCF1093C6008091C00085FFFCCF80E102
:1079D0008093C6001F910895E0910401F091050184
:1079E00009951F9108950E94763C803241F0809164
:1079F00003018F5F80930301853081F008958091AA
:107A0000C00085FFFCCF84E18093C6008091C00058
:107A100085FFFCCF80E18093C6000895E0910401CA
:107A2000F09105010995089540E951E08823A1F0FE
:107A30002D9A28EE33E0FA013197F1F721503040CA
:107A4000D1F72D9828EE33E0FA013197F1F7215064
:107A50003040D1F7815061F708953F924F925F9285
:107A60006F927F928F929F92AF92BF92CF92DF924E
:107A7000EF92FF920F931F93CF93DF93000080E16B
:107A80008093C4001092C50088E18093C10086E015
:107A90008093C2005098589A259A81E00E94143D24
:107AA00024E1F22E9EE1E92E85E9D82E0FE0C02ECA
:107AB00010E1B12EAA24A394B1E49B2EA6E58A2E50
:107AC000F2E57F2EE0E26E2E79E4572E63E5462E36
:107AD00050E5352E0E94763C8033B1F18133B9F107
:107AE000803409F46FC0813409F476C0823409F41B
:107AF00085C0853409F488C0803531F1823521F1A3
:107B0000813511F1853509F485C0863509F48DC0BC
:107B1000843609F496C0843709F403C1853709F423
:107B200072C1863709F466C0809103018F5F80932C
:107B30000301853079F6E0910401F0910501099582
:107B40000E94763C803351F60E94F33CC3CF0E94E2
:107B5000763C803249F78091C00085FFFCCFF092DF
:107B6000C6008091C00085FFFCCF9092C600809136
:107B7000C00085FFFCCF8092C6008091C00085FFC9
:107B8000FCCF7092C6008091C00085FFFCCF609250
:107B9000C6008091C00085FFFCCF5092C600809146
:107BA000C00085FFFCCF4092C6008091C00085FFD9
:107BB000FCCF3092C6008091C00085FFFCCFB09210
:107BC000C60088CF0E94763C863808F4BDCF0E945C
:107BD000763C0E94F33C7ECF0E94763C803809F4CC
:107BE0009CC0813809F40BC1823809F43CC1883942
:107BF00009F48FC080E00E94C73C6CCF84E10E94F2
:107C0000BD3C0E94F33C66CF85E00E94BD3C0E94D3
:107C1000F33C60CF0E94763C809306010E94763C44
:107C2000809307010E94F33C55CF0E94763C80333D
:107C300009F41DC183E00E94BD3C80E00E94C73C66
:107C400049CF0E94763C809309020E94763C809343
:107C5000080280910C028E7F80930C020E94763C79
:107C6000853409F415C18091080290910902892B8D
:107C700089F000E010E00E94763CF801E85FFE4FDA
:107C800080830F5F1F4F80910802909109020817AF
:107C9000190788F30E94763C803209F045CF809125
:107CA0000C0280FF01C16091060170910701660F0F
:107CB000771F7093070160930601A0910802B091AD
:107CC00009021097C9F0E8E0F1E09B01AD014E0F09
:107CD0005F1FF999FECF32BD21BD819180BDFA9A17
:107CE000F99A2F5F3F4FE417F50799F76A0F7B1F4B
:107CF00070930701609306018091C00085FFFCCF5F
:107D0000F092C6008091C00085FFFCCFB092C60003
:107D1000E1CE83E00E94C73CDDCE82E00E94C73CFA
:107D2000D9CE0E94763C809309020E94763C8093D3
:107D300008028091060190910701880F991F909386
:107D40000701809306010E94763C853409F4A6C0A1
:107D500080910C028E7F80930C020E94763C8032D0
:107D600009F0B8CE8091C00085FFFCCFF092C6002C
:107D7000609108027091090261157105B9F140E046
:107D800050E080910C02A82FA170B82FB27011C0E2
:107D9000BB2309F45CC0E0910601F0910701319624
:107DA000F0930701E09306014F5F5F4F46175707B7
:107DB000E8F4AA2369F3F999FECF209106013091E6
:107DC000070132BD21BDF89A90B58091C00085FFB2
:107DD000FCCF9093C6002F5F3F4F30930701209355
:107DE00006014F5F5F4F4617570718F38091C00099
:107DF00085FDE5CE8091C00085FFF8CFE0CE81E023
:107E00000E94C73C67CE0E94763C803209F08CCE3F
:107E10008091C00085FFFCCFF092C6008091C00029
:107E200085FFFCCFE092C6008091C00085FFFCCFAB
:107E3000D092C6008091C00085FFFCCFC092C600E2
:107E40008091C00085FFFCCFB092C60043CEE09188
:107E50000601F091070194918091C00085FFFCCF4D
:107E60009093C6009CCF80E10E94C73C33CE0E9415
:107E7000763C0E94763C182F0E94763C112309F430
:107E800083C0113009F484C08FE00E94C73C22CE29
:107E900080910C02816080930C02E5CE80910C02EF
:107EA000816080930C0259CF809107018823880F4D
:107EB000880B8A2180930B02809106019091070123
:107EC000880F991F90930701809306018091080203
:107ED00080FF09C080910802909109020196909359
:107EE000090280930802F894F999FECF1127E091D6
:107EF0000601F0910701C8E0D1E08091080290915D
:107F00000902103091F40091570001700130D9F34B
:107F100003E000935700E89500915700017001308D
:107F2000D9F301E100935700E89509901990009169
:107F3000570001700130D9F301E000935700E89534
:107F40001395103498F011270091570001700130FB
:107F5000D9F305E000935700E895009157000170B0
:107F60000130D9F301E100935700E895329602976A
:107F700009F0C7CF103011F00296E5CF112480919F
:107F8000C00085FFB9CEBCCE8EE10E94C73CA2CD19
:0E7F900085E90E94C73C9ECDF894FFCF80008B
:00000001FF
